{
  "contractName": "PushNotifications",
  "abi": [
    {
      "anonymous": false,
      "inputs": [
        {
          "indexed": false,
          "internalType": "uint256",
          "name": "channel",
          "type": "uint256"
        },
        {
          "indexed": false,
          "internalType": "string",
          "name": "title",
          "type": "string"
        },
        {
          "indexed": false,
          "internalType": "string",
          "name": "action",
          "type": "string"
        },
        {
          "indexed": false,
          "internalType": "string",
          "name": "body",
          "type": "string"
        },
        {
          "indexed": false,
          "internalType": "string",
          "name": "imageHash",
          "type": "string"
        }
      ],
      "name": "NotifyAllInChannel",
      "type": "event"
    },
    {
      "anonymous": false,
      "inputs": [
        {
          "indexed": false,
          "internalType": "address",
          "name": "recipient",
          "type": "address"
        },
        {
          "indexed": false,
          "internalType": "uint256",
          "name": "channel",
          "type": "uint256"
        },
        {
          "indexed": false,
          "internalType": "string",
          "name": "title",
          "type": "string"
        },
        {
          "indexed": false,
          "internalType": "string",
          "name": "action",
          "type": "string"
        },
        {
          "indexed": false,
          "internalType": "string",
          "name": "body",
          "type": "string"
        },
        {
          "indexed": false,
          "internalType": "string",
          "name": "imageHash",
          "type": "string"
        },
        {
          "indexed": false,
          "internalType": "bool",
          "name": "privateNotification",
          "type": "bool"
        }
      ],
      "name": "NotifyOneInChannel",
      "type": "event"
    },
    {
      "constant": true,
      "inputs": [
        {
          "internalType": "uint256",
          "name": "",
          "type": "uint256"
        }
      ],
      "name": "channels",
      "outputs": [
        {
          "internalType": "string",
          "name": "name",
          "type": "string"
        },
        {
          "internalType": "string",
          "name": "description",
          "type": "string"
        },
        {
          "internalType": "string",
          "name": "iconHash",
          "type": "string"
        },
        {
          "internalType": "string",
          "name": "badgeHash",
          "type": "string"
        },
        {
          "internalType": "address",
          "name": "admin",
          "type": "address"
        }
      ],
      "payable": false,
      "stateMutability": "view",
      "type": "function"
    },
    {
      "constant": true,
      "inputs": [
        {
          "internalType": "address",
          "name": "",
          "type": "address"
        }
      ],
      "name": "publicKeys",
      "outputs": [
        {
          "internalType": "string",
          "name": "",
          "type": "string"
        }
      ],
      "payable": false,
      "stateMutability": "view",
      "type": "function"
    },
    {
      "constant": true,
      "inputs": [
        {
          "internalType": "uint256",
          "name": "",
          "type": "uint256"
        },
        {
          "internalType": "address",
          "name": "",
          "type": "address"
        }
      ],
      "name": "pushAccess",
      "outputs": [
        {
          "internalType": "bool",
          "name": "",
          "type": "bool"
        }
      ],
      "payable": false,
      "stateMutability": "view",
      "type": "function"
    },
    {
      "constant": true,
      "inputs": [
        {
          "internalType": "address",
          "name": "",
          "type": "address"
        },
        {
          "internalType": "uint256",
          "name": "",
          "type": "uint256"
        }
      ],
      "name": "subscriptions",
      "outputs": [
        {
          "internalType": "bool",
          "name": "",
          "type": "bool"
        }
      ],
      "payable": false,
      "stateMutability": "view",
      "type": "function"
    },
    {
      "constant": false,
      "inputs": [
        {
          "internalType": "uint256",
          "name": "_channel",
          "type": "uint256"
        }
      ],
      "name": "subscribe",
      "outputs": [
        {
          "internalType": "bool",
          "name": "",
          "type": "bool"
        }
      ],
      "payable": false,
      "stateMutability": "nonpayable",
      "type": "function"
    },
    {
      "constant": false,
      "inputs": [
        {
          "internalType": "uint256",
          "name": "_channel",
          "type": "uint256"
        }
      ],
      "name": "unsubscribe",
      "outputs": [
        {
          "internalType": "bool",
          "name": "",
          "type": "bool"
        }
      ],
      "payable": false,
      "stateMutability": "nonpayable",
      "type": "function"
    },
    {
      "constant": false,
      "inputs": [
        {
          "internalType": "string",
          "name": "_publicKey",
          "type": "string"
        }
      ],
      "name": "setPublicKey",
      "outputs": [
        {
          "internalType": "bool",
          "name": "",
          "type": "bool"
        }
      ],
      "payable": false,
      "stateMutability": "nonpayable",
      "type": "function"
    },
    {
      "constant": false,
      "inputs": [
        {
          "internalType": "uint256",
          "name": "_channel",
          "type": "uint256"
        },
        {
          "internalType": "address",
          "name": "_address",
          "type": "address"
        },
        {
          "internalType": "bool",
          "name": "_access",
          "type": "bool"
        }
      ],
      "name": "setPushAccess",
      "outputs": [
        {
          "internalType": "bool",
          "name": "",
          "type": "bool"
        }
      ],
      "payable": false,
      "stateMutability": "nonpayable",
      "type": "function"
    },
    {
      "constant": false,
      "inputs": [
        {
          "internalType": "string",
          "name": "_name",
          "type": "string"
        },
        {
          "internalType": "string",
          "name": "_description",
          "type": "string"
        },
        {
          "internalType": "string",
          "name": "_iconHash",
          "type": "string"
        },
        {
          "internalType": "string",
          "name": "_badgeHash",
          "type": "string"
        }
      ],
      "name": "createChannel",
      "outputs": [
        {
          "internalType": "uint256",
          "name": "",
          "type": "uint256"
        }
      ],
      "payable": false,
      "stateMutability": "nonpayable",
      "type": "function"
    },
    {
      "constant": false,
      "inputs": [
        {
          "internalType": "uint256",
          "name": "_channel",
          "type": "uint256"
        },
        {
          "internalType": "string",
          "name": "_name",
          "type": "string"
        },
        {
          "internalType": "string",
          "name": "_description",
          "type": "string"
        },
        {
          "internalType": "string",
          "name": "_iconHash",
          "type": "string"
        },
        {
          "internalType": "string",
          "name": "_badgeHash",
          "type": "string"
        }
      ],
      "name": "editChannel",
      "outputs": [
        {
          "internalType": "bool",
          "name": "",
          "type": "bool"
        }
      ],
      "payable": false,
      "stateMutability": "nonpayable",
      "type": "function"
    },
    {
      "constant": false,
      "inputs": [
        {
          "internalType": "address",
          "name": "_recipient",
          "type": "address"
        },
        {
          "internalType": "uint256",
          "name": "_channel",
          "type": "uint256"
        },
        {
          "internalType": "string",
          "name": "_title",
          "type": "string"
        },
        {
          "internalType": "string",
          "name": "_action",
          "type": "string"
        },
        {
          "internalType": "string",
          "name": "_body",
          "type": "string"
        },
        {
          "internalType": "string",
          "name": "_imageHash",
          "type": "string"
        },
        {
          "internalType": "bool",
          "name": "_privateNotification",
          "type": "bool"
        }
      ],
      "name": "notifyOneInChannel",
      "outputs": [
        {
          "internalType": "bool",
          "name": "",
          "type": "bool"
        }
      ],
      "payable": false,
      "stateMutability": "nonpayable",
      "type": "function"
    },
    {
      "constant": false,
      "inputs": [
        {
          "internalType": "uint256",
          "name": "_channel",
          "type": "uint256"
        },
        {
          "internalType": "string",
          "name": "_title",
          "type": "string"
        },
        {
          "internalType": "string",
          "name": "_action",
          "type": "string"
        },
        {
          "internalType": "string",
          "name": "_body",
          "type": "string"
        },
        {
          "internalType": "string",
          "name": "_imageHash",
          "type": "string"
        }
      ],
      "name": "notifyAll",
      "outputs": [
        {
          "internalType": "bool",
          "name": "",
          "type": "bool"
        }
      ],
      "payable": false,
      "stateMutability": "nonpayable",
      "type": "function"
    }
  ],
  "bytecode": "0x608060405234801561001057600080fd5b50613081806100206000396000f3fe608060405234801561001057600080fd5b50600436106100b45760003560e01c80639a2717ea116100715780639a2717ea146105de578063a3d6f9a914610880578063ad0b27fb1461093d578063e5949b5d14610983578063ea766c1214610ba1578063eb21424014610e43576100b4565b80630f574ba7146100b9578063345c9337146100ff578063623da3d11461017157806369c3bf64146101d75780636f6fc0771461023d5780638727655514610310575b600080fd5b6100e5600480360360208110156100cf57600080fd5b81019080803590602001909291905050506110d7565b604051808215151515815260200191505060405180910390f35b6101576004803603606081101561011557600080fd5b8101908080359060200190929190803573ffffffffffffffffffffffffffffffffffffffff169060200190929190803515159060200190929190505050611302565b604051808215151515815260200191505060405180910390f35b6101bd6004803603604081101561018757600080fd5b81019080803573ffffffffffffffffffffffffffffffffffffffff16906020019092919080359060200190929190505050611438565b604051808215151515815260200191505060405180910390f35b610223600480360360408110156101ed57600080fd5b8101908080359060200190929190803573ffffffffffffffffffffffffffffffffffffffff169060200190929190505050611467565b604051808215151515815260200191505060405180910390f35b6102f66004803603602081101561025357600080fd5b810190808035906020019064010000000081111561027057600080fd5b82018360208201111561028257600080fd5b803590602001918460018302840111640100000000831117156102a457600080fd5b91908080601f016020809104026020016040519081016040528093929190818152602001838380828437600081840152601f19601f820116905080830192505050505050509192919290505050611496565b604051808215151515815260200191505060405180910390f35b6105c4600480360360e081101561032657600080fd5b81019080803573ffffffffffffffffffffffffffffffffffffffff169060200190929190803590602001909291908035906020019064010000000081111561036d57600080fd5b82018360208201111561037f57600080fd5b803590602001918460018302840111640100000000831117156103a157600080fd5b91908080601f016020809104026020016040519081016040528093929190818152602001838380828437600081840152601f19601f8201169050808301925050505050505091929192908035906020019064010000000081111561040457600080fd5b82018360208201111561041657600080fd5b8035906020019184600183028401116401000000008311171561043857600080fd5b91908080601f016020809104026020016040519081016040528093929190818152602001838380828437600081840152601f19601f8201169050808301925050505050505091929192908035906020019064010000000081111561049b57600080fd5b8201836020820111156104ad57600080fd5b803590602001918460018302840111640100000000831117156104cf57600080fd5b91908080601f016020809104026020016040519081016040528093929190818152602001838380828437600081840152601f19601f8201169050808301925050505050505091929192908035906020019064010000000081111561053257600080fd5b82018360208201111561054457600080fd5b8035906020019184600183028401116401000000008311171561056657600080fd5b91908080601f016020809104026020016040519081016040528093929190818152602001838380828437600081840152601f19601f8201169050808301925050505050505091929192908035151590602001909291905050506114f5565b604051808215151515815260200191505060405180910390f35b610866600480360360a08110156105f457600080fd5b81019080803590602001909291908035906020019064010000000081111561061b57600080fd5b82018360208201111561062d57600080fd5b8035906020019184600183028401116401000000008311171561064f57600080fd5b91908080601f016020809104026020016040519081016040528093929190818152602001838380828437600081840152601f19601f820116905080830192505050505050509192919290803590602001906401000000008111156106b257600080fd5b8201836020820111156106c457600080fd5b803590602001918460018302840111640100000000831117156106e657600080fd5b91908080601f016020809104026020016040519081016040528093929190818152602001838380828437600081840152601f19601f8201169050808301925050505050505091929192908035906020019064010000000081111561074957600080fd5b82018360208201111561075b57600080fd5b8035906020019184600183028401116401000000008311171561077d57600080fd5b91908080601f016020809104026020016040519081016040528093929190818152602001838380828437600081840152601f19601f820116905080830192505050505050509192919290803590602001906401000000008111156107e057600080fd5b8201836020820111156107f257600080fd5b8035906020019184600183028401116401000000008311171561081457600080fd5b91908080601f016020809104026020016040519081016040528093929190818152602001838380828437600081840152601f19601f820116905080830192505050505050509192919290505050611c55565b604051808215151515815260200191505060405180910390f35b6108c26004803603602081101561089657600080fd5b81019080803573ffffffffffffffffffffffffffffffffffffffff169060200190929190505050611df2565b6040518080602001828103825283818151815260200191508051906020019080838360005b838110156109025780820151818401526020810190506108e7565b50505050905090810190601f16801561092f5780820380516001836020036101000a031916815260200191505b509250505060405180910390f35b6109696004803603602081101561095357600080fd5b8101908080359060200190929190505050611ea2565b604051808215151515815260200191505060405180910390f35b6109af6004803603602081101561099957600080fd5b8101908080359060200190929190505050612168565b60405180806020018060200180602001806020018673ffffffffffffffffffffffffffffffffffffffff1673ffffffffffffffffffffffffffffffffffffffff16815260200185810385528a818151815260200191508051906020019080838360005b83811015610a2d578082015181840152602081019050610a12565b50505050905090810190601f168015610a5a5780820380516001836020036101000a031916815260200191505b50858103845289818151815260200191508051906020019080838360005b83811015610a93578082015181840152602081019050610a78565b50505050905090810190601f168015610ac05780820380516001836020036101000a031916815260200191505b50858103835288818151815260200191508051906020019080838360005b83811015610af9578082015181840152602081019050610ade565b50505050905090810190601f168015610b265780820380516001836020036101000a031916815260200191505b50858103825287818151815260200191508051906020019080838360005b83811015610b5f578082015181840152602081019050610b44565b50505050905090810190601f168015610b8c5780820380516001836020036101000a031916815260200191505b50995050505050505050505060405180910390f35b610e29600480360360a0811015610bb757600080fd5b810190808035906020019092919080359060200190640100000000811115610bde57600080fd5b820183602082011115610bf057600080fd5b80359060200191846001830284011164010000000083111715610c1257600080fd5b91908080601f016020809104026020016040519081016040528093929190818152602001838380828437600081840152601f19601f82011690508083019250505050505050919291929080359060200190640100000000811115610c7557600080fd5b820183602082011115610c8757600080fd5b80359060200191846001830284011164010000000083111715610ca957600080fd5b91908080601f016020809104026020016040519081016040528093929190818152602001838380828437600081840152601f19601f82011690508083019250505050505050919291929080359060200190640100000000811115610d0c57600080fd5b820183602082011115610d1e57600080fd5b80359060200191846001830284011164010000000083111715610d4057600080fd5b91908080601f016020809104026020016040519081016040528093929190818152602001838380828437600081840152601f19601f82011690508083019250505050505050919291929080359060200190640100000000811115610da357600080fd5b820183602082011115610db557600080fd5b80359060200191846001830284011164010000000083111715610dd757600080fd5b91908080601f016020809104026020016040519081016040528093929190818152602001838380828437600081840152601f19601f82011690508083019250505050505050919291929050505061242b565b604051808215151515815260200191505060405180910390f35b6110c160048036036080811015610e5957600080fd5b8101908080359060200190640100000000811115610e7657600080fd5b820183602082011115610e8857600080fd5b80359060200191846001830284011164010000000083111715610eaa57600080fd5b91908080601f016020809104026020016040519081016040528093929190818152602001838380828437600081840152601f19601f82011690508083019250505050505050919291929080359060200190640100000000811115610f0d57600080fd5b820183602082011115610f1f57600080fd5b80359060200191846001830284011164010000000083111715610f4157600080fd5b91908080601f016020809104026020016040519081016040528093929190818152602001838380828437600081840152601f19601f82011690508083019250505050505050919291929080359060200190640100000000811115610fa457600080fd5b820183602082011115610fb657600080fd5b80359060200191846001830284011164010000000083111715610fd857600080fd5b91908080601f016020809104026020016040519081016040528093929190818152602001838380828437600081840152601f19601f8201169050808301925050505050505091929192908035906020019064010000000081111561103b57600080fd5b82018360208201111561104d57600080fd5b8035906020019184600183028401116401000000008311171561106f57600080fd5b91908080601f016020809104026020016040519081016040528093929190818152602001838380828437600081840152601f19601f820116905080830192505050505050509192919290505050612a4a565b6040518082815260200191505060405180910390f35b60008160018054905011611153576040517f08c379a00000000000000000000000000000000000000000000000000000000081526004018080602001828103825260148152602001807f6368616e6e656c2073686f756c6420657869737400000000000000000000000081525060200191505060405180910390fd5b60011515600260003373ffffffffffffffffffffffffffffffffffffffff1673ffffffffffffffffffffffffffffffffffffffff168152602001908152602001600020600084815260200190815260200160002060009054906101000a900460ff161515141561120e576040517f08c379a0000000000000000000000000000000000000000000000000000000008152600401808060200182810382526023815260200180612fef6023913960400191505060405180910390fd5b6001600260003373ffffffffffffffffffffffffffffffffffffffff1673ffffffffffffffffffffffffffffffffffffffff168152602001908152602001600020600084815260200190815260200160002060006101000a81548160ff0219169083151502179055506001828154811061128457fe5b90600052602060002090600602016005013390806001815401808255809150509060018203906000526020600020016000909192909190916101000a81548173ffffffffffffffffffffffffffffffffffffffff021916908373ffffffffffffffffffffffffffffffffffffffff1602179055505060019050919050565b60006001848154811061131157fe5b906000526020600020906006020160040160009054906101000a900473ffffffffffffffffffffffffffffffffffffffff1673ffffffffffffffffffffffffffffffffffffffff163373ffffffffffffffffffffffffffffffffffffffff16146113c6576040517f08c379a0000000000000000000000000000000000000000000000000000000008152600401808060200182810382526030815260200180612f0c6030913960400191505060405180910390fd5b8160008086815260200190815260200160002060008573ffffffffffffffffffffffffffffffffffffffff1673ffffffffffffffffffffffffffffffffffffffff16815260200190815260200160002060006101000a81548160ff021916908315150217905550600190509392505050565b60026020528160005260406000206020528060005260406000206000915091509054906101000a900460ff1681565b60006020528160005260406000206020528060005260406000206000915091509054906101000a900460ff1681565b600081600360003373ffffffffffffffffffffffffffffffffffffffff1673ffffffffffffffffffffffffffffffffffffffff16815260200190815260200160002090805190602001906114eb929190612bca565b5060019050919050565b60006114ff612c4a565b6001888154811061150c57fe5b90600052602060002090600602016040518060c0016040529081600082018054600181600116156101000203166002900480601f0160208091040260200160405190810160405280929190818152602001828054600181600116156101000203166002900480156115be5780601f10611593576101008083540402835291602001916115be565b820191906000526020600020905b8154815290600101906020018083116115a157829003601f168201915b50505050508152602001600182018054600181600116156101000203166002900480601f0160208091040260200160405190810160405280929190818152602001828054600181600116156101000203166002900480156116605780601f1061163557610100808354040283529160200191611660565b820191906000526020600020905b81548152906001019060200180831161164357829003601f168201915b50505050508152602001600282018054600181600116156101000203166002900480601f0160208091040260200160405190810160405280929190818152602001828054600181600116156101000203166002900480156117025780601f106116d757610100808354040283529160200191611702565b820191906000526020600020905b8154815290600101906020018083116116e557829003601f168201915b50505050508152602001600382018054600181600116156101000203166002900480601f0160208091040260200160405190810160405280929190818152602001828054600181600116156101000203166002900480156117a45780601f10611779576101008083540402835291602001916117a4565b820191906000526020600020905b81548152906001019060200180831161178757829003601f168201915b505050505081526020016004820160009054906101000a900473ffffffffffffffffffffffffffffffffffffffff1673ffffffffffffffffffffffffffffffffffffffff1673ffffffffffffffffffffffffffffffffffffffff1681526020016005820180548060200260200160405190810160405280929190818152602001828054801561188857602002820191906000526020600020905b8160009054906101000a900473ffffffffffffffffffffffffffffffffffffffff1673ffffffffffffffffffffffffffffffffffffffff168152602001906001019080831161183e575b50505050508152505090508215611926573373ffffffffffffffffffffffffffffffffffffffff16816080015173ffffffffffffffffffffffffffffffffffffffff1614611921576040517f08c379a00000000000000000000000000000000000000000000000000000000081526004018080602001828103825260b3815260200180612f3c60b3913960c00191505060405180910390fd5b611a1a565b3373ffffffffffffffffffffffffffffffffffffffff16816080015173ffffffffffffffffffffffffffffffffffffffff1614806119c45750600115156000808a815260200190815260200160002060003373ffffffffffffffffffffffffffffffffffffffff1673ffffffffffffffffffffffffffffffffffffffff16815260200190815260200160002060009054906101000a900460ff161515145b611a19576040517f08c379a0000000000000000000000000000000000000000000000000000000008152600401808060200182810382526075815260200180612e386075913960800191505060405180910390fd5b5b7f6452d1959b586a46259f51796a37a9a53d9a48aa68983fe166ddf2de2f4ec82289898989898989604051808873ffffffffffffffffffffffffffffffffffffffff1673ffffffffffffffffffffffffffffffffffffffff168152602001878152602001806020018060200180602001806020018615151515815260200185810385528a818151815260200191508051906020019080838360005b83811015611ad0578082015181840152602081019050611ab5565b50505050905090810190601f168015611afd5780820380516001836020036101000a031916815260200191505b50858103845289818151815260200191508051906020019080838360005b83811015611b36578082015181840152602081019050611b1b565b50505050905090810190601f168015611b635780820380516001836020036101000a031916815260200191505b50858103835288818151815260200191508051906020019080838360005b83811015611b9c578082015181840152602081019050611b81565b50505050905090810190601f168015611bc95780820380516001836020036101000a031916815260200191505b50858103825287818151815260200191508051906020019080838360005b83811015611c02578082015181840152602081019050611be7565b50505050905090810190601f168015611c2f5780820380516001836020036101000a031916815260200191505b509b50505050505050505050505060405180910390a16001915050979650505050505050565b600060018681548110611c6457fe5b906000526020600020906006020160040160009054906101000a900473ffffffffffffffffffffffffffffffffffffffff1673ffffffffffffffffffffffffffffffffffffffff163373ffffffffffffffffffffffffffffffffffffffff1614611d19576040517f08c379a000000000000000000000000000000000000000000000000000000000815260040180806020018281038252602f815260200180612e09602f913960400191505060405180910390fd5b8460018781548110611d2757fe5b90600052602060002090600602016000019080519060200190611d4b929190612bca565b508360018781548110611d5a57fe5b90600052602060002090600602016001019080519060200190611d7e929190612bca565b508260018781548110611d8d57fe5b90600052602060002090600602016002019080519060200190611db1929190612bca565b508160018781548110611dc057fe5b90600052602060002090600602016003019080519060200190611de4929190612bca565b506001905095945050505050565b60036020528060005260406000206000915090508054600181600116156101000203166002900480601f016020809104026020016040519081016040528092919081815260200182805460018160011615610100020316600290048015611e9a5780601f10611e6f57610100808354040283529160200191611e9a565b820191906000526020600020905b815481529060010190602001808311611e7d57829003601f168201915b505050505081565b600060011515600260003373ffffffffffffffffffffffffffffffffffffffff1673ffffffffffffffffffffffffffffffffffffffff168152602001908152602001600020600084815260200190815260200160002060009054906101000a900460ff16151514611f5e576040517f08c379a000000000000000000000000000000000000000000000000000000000815260040180806020018281038252603b815260200180613012603b913960400191505060405180910390fd5b6000600260003373ffffffffffffffffffffffffffffffffffffffff1673ffffffffffffffffffffffffffffffffffffffff168152602001908152602001600020600084815260200190815260200160002060006101000a81548160ff021916908315150217905550600060018381548110611fd657fe5b90600052602060002090600602019050600080600090505b826005018054905081101561207f573373ffffffffffffffffffffffffffffffffffffffff1683600501828154811061202357fe5b9060005260206000200160009054906101000a900473ffffffffffffffffffffffffffffffffffffffff1673ffffffffffffffffffffffffffffffffffffffff1614156120725780915061207f565b8080600101915050611fee565b508160050160018360050180549050038154811061209957fe5b9060005260206000200160009054906101000a900473ffffffffffffffffffffffffffffffffffffffff168260050182815481106120d357fe5b9060005260206000200160006101000a81548173ffffffffffffffffffffffffffffffffffffffff021916908373ffffffffffffffffffffffffffffffffffffffff1602179055508160050180548061212857fe5b6001900381819060005260206000200160006101000a81549073ffffffffffffffffffffffffffffffffffffffff02191690559055600192505050919050565b6001818154811061217557fe5b9060005260206000209060060201600091509050806000018054600181600116156101000203166002900480601f0160208091040260200160405190810160405280929190818152602001828054600181600116156101000203166002900480156122215780601f106121f657610100808354040283529160200191612221565b820191906000526020600020905b81548152906001019060200180831161220457829003601f168201915b505050505090806001018054600181600116156101000203166002900480601f0160208091040260200160405190810160405280929190818152602001828054600181600116156101000203166002900480156122bf5780601f10612294576101008083540402835291602001916122bf565b820191906000526020600020905b8154815290600101906020018083116122a257829003601f168201915b505050505090806002018054600181600116156101000203166002900480601f01602080910402602001604051908101604052809291908181526020018280546001816001161561010002031660029004801561235d5780601f106123325761010080835404028352916020019161235d565b820191906000526020600020905b81548152906001019060200180831161234057829003601f168201915b505050505090806003018054600181600116156101000203166002900480601f0160208091040260200160405190810160405280929190818152602001828054600181600116156101000203166002900480156123fb5780601f106123d0576101008083540402835291602001916123fb565b820191906000526020600020905b8154815290600101906020018083116123de57829003601f168201915b5050505050908060040160009054906101000a900473ffffffffffffffffffffffffffffffffffffffff16905085565b6000612435612c4a565b6001878154811061244257fe5b90600052602060002090600602016040518060c0016040529081600082018054600181600116156101000203166002900480601f0160208091040260200160405190810160405280929190818152602001828054600181600116156101000203166002900480156124f45780601f106124c9576101008083540402835291602001916124f4565b820191906000526020600020905b8154815290600101906020018083116124d757829003601f168201915b50505050508152602001600182018054600181600116156101000203166002900480601f0160208091040260200160405190810160405280929190818152602001828054600181600116156101000203166002900480156125965780601f1061256b57610100808354040283529160200191612596565b820191906000526020600020905b81548152906001019060200180831161257957829003601f168201915b50505050508152602001600282018054600181600116156101000203166002900480601f0160208091040260200160405190810160405280929190818152602001828054600181600116156101000203166002900480156126385780601f1061260d57610100808354040283529160200191612638565b820191906000526020600020905b81548152906001019060200180831161261b57829003601f168201915b50505050508152602001600382018054600181600116156101000203166002900480601f0160208091040260200160405190810160405280929190818152602001828054600181600116156101000203166002900480156126da5780601f106126af576101008083540402835291602001916126da565b820191906000526020600020905b8154815290600101906020018083116126bd57829003601f168201915b505050505081526020016004820160009054906101000a900473ffffffffffffffffffffffffffffffffffffffff1673ffffffffffffffffffffffffffffffffffffffff1673ffffffffffffffffffffffffffffffffffffffff168152602001600582018054806020026020016040519081016040528092919081815260200182805480156127be57602002820191906000526020600020905b8160009054906101000a900473ffffffffffffffffffffffffffffffffffffffff1673ffffffffffffffffffffffffffffffffffffffff1681526020019060010190808311612774575b5050505050815250509050806080015173ffffffffffffffffffffffffffffffffffffffff163373ffffffffffffffffffffffffffffffffffffffff1614612851576040517f08c379a000000000000000000000000000000000000000000000000000000000815260040180806020018281038252605f815260200180612ead605f913960600191505060405180910390fd5b7ff73c1e00503e2cc9d434555ad1d81c1240f3fa1f2fe25638f1e09a80fbe8b1c187878787876040518086815260200180602001806020018060200180602001858103855289818151815260200191508051906020019080838360005b838110156128c95780820151818401526020810190506128ae565b50505050905090810190601f1680156128f65780820380516001836020036101000a031916815260200191505b50858103845288818151815260200191508051906020019080838360005b8381101561292f578082015181840152602081019050612914565b50505050905090810190601f16801561295c5780820380516001836020036101000a031916815260200191505b50858103835287818151815260200191508051906020019080838360005b8381101561299557808201518184015260208101905061297a565b50505050905090810190601f1680156129c25780820380516001836020036101000a031916815260200191505b50858103825286818151815260200191508051906020019080838360005b838110156129fb5780820151818401526020810190506129e0565b50505050905090810190601f168015612a285780820380516001836020036101000a031916815260200191505b50995050505050505050505060405180910390a1600191505095945050505050565b6000612a54612c4a565b85816000018190525084816020018190525083816040018190525082816060018190525033816080019073ffffffffffffffffffffffffffffffffffffffff16908173ffffffffffffffffffffffffffffffffffffffff1681525050600181908060018154018082558091505090600182039060005260206000209060060201600090919290919091506000820151816000019080519060200190612afa929190612c96565b506020820151816001019080519060200190612b17929190612c96565b506040820151816002019080519060200190612b34929190612c96565b506060820151816003019080519060200190612b51929190612c96565b5060808201518160040160006101000a81548173ffffffffffffffffffffffffffffffffffffffff021916908373ffffffffffffffffffffffffffffffffffffffff16021790555060a0820151816005019080519060200190612bb5929190612d16565b50505050600180549050915050949350505050565b828054600181600116156101000203166002900490600052602060002090601f016020900481019282601f10612c0b57805160ff1916838001178555612c39565b82800160010185558215612c39579182015b82811115612c38578251825591602001919060010190612c1d565b5b509050612c469190612da0565b5090565b6040518060c0016040528060608152602001606081526020016060815260200160608152602001600073ffffffffffffffffffffffffffffffffffffffff168152602001606081525090565b828054600181600116156101000203166002900490600052602060002090601f016020900481019282601f10612cd757805160ff1916838001178555612d05565b82800160010185558215612d05579182015b82811115612d04578251825591602001919060010190612ce9565b5b509050612d129190612da0565b5090565b828054828255906000526020600020908101928215612d8f579160200282015b82811115612d8e5782518260006101000a81548173ffffffffffffffffffffffffffffffffffffffff021916908373ffffffffffffffffffffffffffffffffffffffff16021790555091602001919060010190612d36565b5b509050612d9c9190612dc5565b5090565b612dc291905b80821115612dbe576000816000905550600101612da6565b5090565b90565b612e0591905b80821115612e0157600081816101000a81549073ffffffffffffffffffffffffffffffffffffffff021916905550600101612dcb565b5090565b9056fe596f75206d75737420626520746865206368616e6e656c2061646d696e20746f20656469742061206368616e6e656c7075626c6963206e6f74696669636174696f6e7320746f206f6e6520706572736f6e20696e206368616e6e656c2063616e206f6e6c792062652073656e74206279207468652061646d696e206f72206f6e65206f662074686520616c6c6f776564206164647265737365732f636f6e74726163747373656e646572206973206e6f742061646d696e206f66206368616e6e656c2c206368616e6e656c2d77696465206e6f74696669636174696f6e732063616e206f6e6c792062652073656e742062792061646d696e206f66206368616e6e656c596f75206d75737420626520746865206368616e6e656c2061646d696e20746f2073657420707573682061636365737373656e646572206973206e6f742061646d696e206f66206368616e6e656c2c2070726976617465206e6f74696669636174696f6e2063616e206f6e6c792062652073656e742061646d696e206f66206368616e6e656c2e2050726976617465206e6f74696669636174696f6e73206172652064697361626c656420666f7220736d61727420636f6e7472616374732073696e636520736563726574732063616e2774206265206b657074206f6e2d636861696e596f752073686f756c646e2774206265207375627363726962656420616c7265616479596f752073686f756c64206265207375627363726962656420616c72656164792c206f746865727769736520646f6e277420776173746520676173a265627a7a72315820ce1136d88a0c2312b7b50b55a5be8e55957ba01d4a9b29f3e9c41abdb08deeb364736f6c63430005100032",
  "source": "// SPDX-License-Identifier: MIT\npragma solidity >=0.4.22 <0.9.0;\n\ncontract PushNotifications{\n    event NotifyOneInChannel(\n        address recipient,\n        uint256 channel,\n        string title,\n        string action,\n        string body,\n        string imageHash,\n        bool privateNotification\n    );\n\n    event NotifyAllInChannel(\n        uint256 channel,\n        string title,\n        string action,\n        string body,\n        string imageHash\n    );\n    \n    struct Channel{\n        string name;\n        string description;\n        string iconHash;\n        string badgeHash;\n        address admin;\n        address[] subscribers;\n    }\n    //      channel index => pushing address => permission boolean\n    mapping(uint256 => mapping(address => bool)) public pushAccess; // mapping of addresses OTHER THAN ADMIN who can send push notifications\n\n    Channel[] public channels; // this refers to a dynamic array containing info on various channels\n\n    //  user address => channel index => subscription boolean\n    mapping (address=>mapping(uint256=>bool)) public subscriptions;  // mapping of addresses who subscribed to channels\n    mapping (address=>string) public publicKeys; // used for sending notifications privately to one person\n\n    function subscribe(uint256 _channel) public returns (bool){\n        require(channels.length > _channel,\"channel should exist\");\n        require(subscriptions[msg.sender][_channel] != true,\"You shouldn't be subscribed already\");\n        subscriptions[msg.sender][_channel] = true;\n        channels[_channel].subscribers.push(msg.sender);\n        return true;\n    }\n\n    function unsubscribe(uint256 _channel) public returns (bool){\n        require(\n            subscriptions[msg.sender][_channel] == true,\n            \"You should be subscribed already, otherwise don't waste gas\"\n        ); \n        subscriptions[msg.sender][_channel] = false;\n        Channel storage channel = channels[_channel];\n        uint256 indexToBeDeleted;\n        for(uint i=0;i<channel.subscribers.length;i++){\n            if(channel.subscribers[i] == msg.sender){\n                indexToBeDeleted = i;\n                break;\n            }\n        }\n\n        // replace last element with current element\n        channel.subscribers[indexToBeDeleted] = channel.subscribers[channel.subscribers.length-1];\n\n        // remove the last element\n        channel.subscribers.pop();\n        return true;\n    }\n\n    function setPublicKey(string memory _publicKey) public returns (bool){\n        publicKeys[msg.sender] = _publicKey;\n        return true;\n    }\n\n    // this is useful when you want a notification event to be fireable from a contract, you \n    function setPushAccess(uint256 _channel,address _address,bool _access) public returns (bool){\n        require(msg.sender == channels[_channel].admin,\"You must be the channel admin to set push access\");\n        pushAccess[_channel][_address] = _access;\n        return true;\n    }\n\n    function createChannel(\n        string memory _name,\n        string memory _description,\n        string memory _iconHash,\n        string memory _badgeHash\n        ) public returns (uint256){\n        Channel memory channel;\n        channel.name = _name;\n        channel.description = _description;\n        channel.iconHash = _iconHash;\n        channel.badgeHash = _badgeHash;\n        channel.admin = msg.sender;\n        channels.push(channel);\n        return channels.length; // return the new standing count of channels\n    }\n\n    function editChannel(\n        uint256 _channel,\n        string memory _name,\n        string memory _description,\n        string memory _iconHash,\n        string memory _badgeHash\n        ) \n    public returns (bool){\n        require(msg.sender == channels[_channel].admin,\"You must be the channel admin to edit a channel\");\n        channels[_channel].name = _name;\n        channels[_channel].description = _description;\n        channels[_channel].iconHash = _iconHash;\n        channels[_channel].badgeHash = _badgeHash;\n        return true;\n    }\n\n    // in the case of private notification, it is assumed that fields like title, action, body \n    // and imageHash have already been encrypted by the sender who is compulsarily admin of channel\n    // in that case.\n    function notifyOneInChannel(\n        address _recipient,\n        uint256 _channel,\n        string memory _title,\n        string memory _action,\n        string memory _body,\n        string memory _imageHash,\n        bool _privateNotification\n    ) public returns (bool){\n        \n        Channel memory channel = channels[_channel];\n        // require that the sender is an admin or one of the permissed contracts\n        if(_privateNotification){\n            require(channel.admin == msg.sender,\"sender is not admin of channel, private notification can only be sent admin of channel. Private notifications are disabled for smart contracts since secrets can't be kept on-chain\");\n        }\n        else{\n            require(channel.admin == msg.sender || pushAccess[_channel][msg.sender] == true,\"public notifications to one person in channel can only be sent by the admin or one of the allowed addresses/contracts\");\n        }\n\n        emit NotifyOneInChannel(\n            _recipient,\n            _channel,\n            _title,\n            _action,\n            _body,\n            _imageHash,\n            _privateNotification\n        );\n\n        return true;\n    }\n\n    function notifyAll(\n        uint256 _channel,\n        string memory _title,\n        string memory _action, \n        string memory _body,\n        string memory _imageHash\n    ) public returns (bool){\n        Channel memory channel = channels[_channel];\n        require(msg.sender == channel.admin,\"sender is not admin of channel, channel-wide notifications can only be sent by admin of channel\");\n\n        emit NotifyAllInChannel(\n            _channel,\n            _title,\n            _action,\n            _body,\n            _imageHash\n        );\n\n        return true;\n    }\n}",
  "sourcePath": "/Users/vaibhavchopra/code/cpns/smart-contracts/contracts/PushNotifications.sol",
  "compiler": {
    "name": "solc",
    "version": "0.5.16+commit.9c3226ce.Emscripten.clang"
  },
  "schemaVersion": "3.4.1",
  "updatedAt": "2021-07-20T16:12:14.464Z",
  "networkType": "ethereum",
  "devdoc": {
    "methods": {}
  },
  "userdoc": {
    "methods": {}
  }
}